:1000000012C02CC02BC02AC029C028C027C026C0BF
:1000100025C024C023C022C021C020C01FC01EC0D4
:100020001DC01CC01BC011241FBECFE5D4E0DEBF25
:10003000CDBF10E0A0E6B0E0E0E0FBE002C005903C
:100040000D92AE39B107D9F720E0AEE9B0E001C0BA
:100050001D92A03AB207E1F7E6D050C5D1CF86B1E4
:10006000876886B93E9A089587B9369A3699FECF41
:1000700084B125B190E0922B089510BC83E389B937
:1000800088E08AB986E880BD08955D9BFECF8CB973
:100090000895CF93DF93EC018881882329F021967E
:1000A000F4DF89918111FCCFDF91CF910895CF9238
:1000B000DF92EF92FF920F931F93CF93DF93CDB711
:1000C000DEB764970FB6F894DEBF0FBECDBF0CE36A
:1000D00010E0C12CD12C760186E0C6DFC80ED91EF7
:1000E000E11CF11C8FE19EE40197F1F700C00000D4
:1000F0000150110989F7C701B6012CE330E040E057
:1001000050E0E6D1022F132F5F934F933F932F932D
:1001100080E690E09F938F939E012F5F3F4F790180
:100120003F932F9313D2C701B4DF802F912F0FB6C7
:10013000F894DEBF0FBECDBF64960FB6F894DEBF55
:100140000FBECDBFDF91CF911F910F91FF90EF9028
:10015000DF90CF900895C798613011F495981EC034
:1001600096981CC0C79AAF01022E02C055954795BC
:100170000A94E2F748235923452B11F0C69A01C08F
:10018000C698C7982F5F3F4F2830310559F7C79A57
:10019000613011F4959A0895969A089520E030E020
:1001A000E0E8F0E090E0DECFCF93DF9360E080E026
:1001B000D2DF61E080E0CFDFD0E060E08D2FCBDFE9
:1001C000C0E061E08C2FC7DF86E04EDF895C9109DB
:1001D0008B3B924028F4C0939E00D0939F000AC0AE
:1001E00095B381E0892785BBCF5FCF3F51F7D75EBD
:1001F000DA3F19F7DF91CF91089581E084BB84E65F
:1002000081BB80EC87BB2BDF38DFCEDF8BE690E055
:1002100040DF2FEF81EE94E0215080409040E1F7E5
:1002200000C000000895CF93DF93CDB7DEB7C4566A
:10023000D1090FB6F894DEBF0FBECDBFDEDFFE01E1
:1002400031968EE1DF011D928A95E9F77E968CE367
:10025000DF011D928A95E9F72ADF7C010EE110E0AB
:10026000812C912C540187E0FFDE880E991EA11C81
:10027000B11C01501109B9F7C501B4012EE130E0FC
:1002800040E050E025D149016E01B3E3CB0ED11C13
:10029000FE017F96E192F192CE16DF06D9F7212C6E
:1002A000312C412C512C32018E010F5C1F4FA59631
:1002B0009FAE8EAEA59786E0D7DEA3969FAF8EAF9A
:1002C000A397FE017F966F961CAE1DAE1EAE1FAEAD
:1002D0006F97A5968EAC9FACA5975C0140E050E06F
:1002E000BA018281938181939193092E000CAA0B0C
:1002F000BB0B480F591F6A1F7B1F0E171F0789F77B
:10030000A5969FAE8EAEA597A396BFAEAEAEA397B1
:10031000BAAAA9AAC501BB0CAA0BBB0B4A015B0177
:10032000880E991EAA1EBB1EC501B4012AE030E04A
:1003300040E050E0EFD0C7010F2C000CAA0BBB0B24
:1003400049015A01881A990AAA0ABB0A6F968CAE0B
:100350009DAEAEAEBFAE6F976D96AEACBFAC6D97B7
:1003600087E082DE480E591E611C711C33940F2EEB
:10037000FDE19F2EF02D931478F4C301B2012EE11C
:1003800030E040E050E0A4D0A5963FAF2EAFA59757
:10039000312C412C512C3201239423E02215D0F52D
:1003A00080919E001F928F9380919F001F928F9348
:1003B000A5963FADA5973F93A4964FADA4974F93B5
:1003C000FF92EF92A3965FADA3975F93A2968FAD36
:1003D000A2978F936D969FAD6D979F936C96AFADDF
:1003E0006C97AF930F2EF6E78F2EF0E09F2EF02D37
:1003F0009F928F9241E050E04C0F5D1F5F934F93AF
:10040000A5D0CE01019645DE0FB6F894DEBF0FBE33
:10041000CDBF212CA5968EAC9FACA597A814B9048E
:1004200034F42DE9A2162FEFB2060CF04AC0A596BF
:100430003FADA5973F93A4964FADA4974F936D966C
:100440005FAD6D975F936C968FAD6C978F93AEE8B1
:10045000B0E0BF93AF93AA24A394B12CAC0EBD1E01
:10046000BF92AF9273D0C50114DEA89A929A2FEF73
:1004700031EE44E0215030404040E1F700C0000040
:1004800092985FEF8EE994E2515080409040E1F7FE
:1004900000C000000CDE7C01A8980FB6F894DEBF07
:1004A0000FBECDBFFE017F96A5968EAC9FACA597E3
:1004B000E192F192CE16DF06D9F7A5969FAE8EAEE9
:1004C000A5978FE19EE40197F1F700C00000F3CEFD
:1004D000A1E21A2EAA1BBB1BFD010DC0AA1FBB1F48
:1004E000EE1FFF1FA217B307E407F50720F0A21BBA
:1004F000B30BE40BF50B661F771F881F991F1A9427
:1005000069F760957095809590959B01AC01BD0150
:10051000CF010895052E97FB16F400940FD057FDD8
:1005200005D0D6DF07FC02D046F408C050954095B0
:10053000309521953F4F4F4F5F4F0895909580958F
:10054000709561957F4F8F4F9F4F0895AEE0B0E05B
:10055000EBEAF2E0AAC20D891E8986E08C831A8339
:1005600009838FEF9FE79E838D83AE01475E5F4FC8
:100570006F89788DCE01019608D0EF81F885E00F64
:10058000F11F10822E96E4E0ACC2ABE0B0E0EAECE2
:10059000F2E07DC26C017B018A01FC0117821682A8
:1005A000838181FFBFC1CE0101963C01F601938199
:1005B000F70193FD859193FF81917F01882309F4D1
:1005C000ADC1853239F493FD859193FF81917F010F
:1005D000853221F4B60190E0C0D1E8CF912C212CD6
:1005E000312CFFE1F315D8F08B3279F038F48032FA
:1005F00079F08332A1F4232D20611DC08D3261F08A
:10060000803369F4232D216016C0832D8260382E3B
:10061000E32DE4603E2E2AC0F32DF8601DC037FCA8
:100620002DC020ED280F2A3040F08E32B9F436FC70
:1006300075C1232D2064322E19C036FE06C08AE013
:10064000989E200D1124922E11C0EAE02E9E200DBE
:100650001124222EF32DF0623F2E08C08C3621F497
:10066000832D8068382E02C0883641F4F70193FD4F
:10067000859193FF81917F018111B3CF982F9F7D49
:100680009554933028F40C5F1F4F9FE399830DC05E
:10069000833631F0833771F0833509F055C020C0BF
:1006A000F801808189830E5F1F4F88248394912CE9
:1006B000530112C02801F2E04F0E511CF801A08036
:1006C000B18036FE03C0692D70E002C06FEF7FEF8E
:1006D000C50138D14C018201F32DFF773F2E15C0A3
:1006E000280122E0420E511CF801A080B18036FEA4
:1006F00003C0692D70E002C06FEF7FEFC50117D115
:100700004C01F32DF0683F2E820133FC19C0822D7D
:1007100090E088169906A0F4B60180E290E01DD121
:100720002A94F5CFF50137FC859137FE81915F0161
:10073000B60190E012D121102A9421E0821A91088A
:100740008114910479F7E1C0843611F0893639F5C6
:10075000F80137FE07C060817181828193810C5F4F
:100760001F4F08C060817181072E000C880B990B08
:100770000E5F1F4FF32DFF763F2E97FF09C0909518
:100780008095709561957F4F8F4F9F4FF0683F2EFA
:100790002AE030E0A3011DD1882E861844C0853799
:1007A00031F4232D2F7EB22E2AE030E025C0932D88
:1007B000997FB92E8F36C1F018F4883579F0AEC024
:1007C000803719F0883721F0A9C0E92FE061BE2EEB
:1007D000B4FE0DC0FB2DF460BF2E09C034FE0AC06C
:1007E000292F2660B22E06C028E030E005C020E1A7
:1007F00030E002C020E132E0F801B7FE07C06081BE
:100800007181828193810C5F1F4F06C0608171816D
:1008100080E090E00E5F1F4FA301DBD0882E86188A
:10082000FB2DFF773F2E36FE0DC0232D2E7FA22EEF
:10083000891458F434FE0BC032FC09C0832D8E7E1F
:10084000A82E05C0B82CA32C03C0B82C01C0B92C0D
:10085000A4FE0FC0FE01E80DF11D8081803321F45C
:100860009A2D997EA92E09C0A2FE06C0B394B39416
:1008700004C08A2D867809F0B394A3FC10C0A0FEB2
:1008800006C0B21480F4280C922C9B180DC0B21430
:1008900058F4B60180E290E060D0B394F8CFB2147F
:1008A00018F42B1802C0982C212CA4FE0FC0B601FE
:1008B00080E390E052D0A2FE16C0A1FC03C088E7FE
:1008C00090E002C088E590E0B6010CC08A2D8678E1
:1008D00051F0A1FE02C08BE201C080E2A7FC8DE2D4
:1008E000B60190E03AD0891430F4B60180E390E08C
:1008F00034D09A94F8CF8A94F301E80DF11D8081E9
:10090000B60190E02AD08110F6CF222009F44ECE15
:10091000B60180E290E021D02A94F7CFF6018681DB
:10092000978102C08FEF9FEF2B96E2E1CCC0FC01D4
:100930000590615070400110D8F7809590958E0F0A
:100940009F1F0895FC016150704001900110D8F77D
:10095000809590958E0F9F1F08950F931F93CF93AF
:10096000DF93FB01238121FD03C08FEF9FEF2CC09C
:1009700022FF16C0468157812481358142175307D3
:1009800044F4A081B1819D012F5F3F4F31832083CB
:100990008C93268137812F5F3F4F3783268314C086
:1009A0008B01EC01FB010084F185E02D0995892B79
:1009B000E1F6D80116968D919C911797019617969E
:1009C0009C938E931697CE01DF91CF911F910F913B
:1009D0000895FA01AA27283051F1203181F1E894D5
:1009E0006F936E7F6E5F7F4F8F4F9F4FAF4FB1E022
:1009F0003ED0B4E03CD0670F781F891F9A1FA11D1D
:100A0000680F791F8A1F911DA11D6A0F711D811D1D
:100A1000911DA11D20D009F468943F912AE0269FE2
:100A200011243019305D3193DEF6CF010895462F41
:100A30004770405D4193B3E00FD0C9F7F6CF462F22
:100A40004F70405D4A3318F0495D31FD405241938B
:100A500002D0A9F7EACFB4E0A69597958795779548
:100A60006795BA95C9F700976105710508959B01CF
:100A7000AC010A2E06945795479537952795BA9558
:100A8000C9F7620F731F841F951FA01D08952F9231
:100A90003F924F925F926F927F928F929F92AF920E
:100AA000BF92CF92DF92EF92FF920F931F93CF935B
:100AB000DF93CDB7DEB7CA1BDB0B0FB6F894DEBFF2
:100AC0000FBECDBF09942A88398848885F846E8418
:100AD0007D848C849B84AA84B984C884DF80EE8062
:100AE000FD800C811B81AA81B981CE0FD11D0FB66B
:100AF000F894DEBF0FBECDBFED010895F894FFCF8F
:100B00005A65726F3D256C640D0A005374617274EE
:100B10002E2E2E0D0A002564092564092564092559
:100B20006409673D256409723D25640D0A00506F14
:0E0B3000726F672E2E2E25645C25640D0A0060
:00000001FF
